:020000040800F2
:1000000070060120C1010008CD1E0008731C000805
:10001000C91E000809020008D922000800000000DB
:100020000000000000000000000000009121000816
:100030004703000800000000091F00089321000882
:10004000DB010008DB010008DB010008DB01000820
:10005000DB010008DB010008DB010008DB01000810
:10006000DB010008DB010008DB010008DB01000800
:10007000DB010008DB0100080D0200081D0200087A
:10008000DB010008DB010008DB010008DB010008E0
:10009000DB010008DB010008DB010008DB010008D0
:1000A000DB010008DB010008DB010008DB010008C0
:1000B000DB010008DB010008DB010008DB010008B0
:1000C000DB010008DB010008DB010008DB010008A0
:1000D0009D1F0008DB010008DB010008DB010008B0
:1000E000DB010008DB010008DB010008DB01000880
:1000F000DB010008DB010008DB010008DB01000870
:10010000DB010008DB010008DB010008DB0100085F
:10011000DB010008DB010008DB010008DB0100084F
:10012000DB010008DB010008DB010008DB0100083F
:10013000DB010008DB010008DB010008DB0100082F
:10014000DB010008DB010008DB010008DB0100081F
:10015000DB010008DB010008DB010008DB0100080F
:10016000DB010008DB010008DB010008DB010008FF
:10017000DB010008DB010008DB01000800000000D3
:10018000DB010008DB010008DB010008DB010008DF
:10019000DB010008DB010008DB010008DB010008CF
:1001A000DB010008DB010008DB010008DFF80CD0F0
:1001B00000F018F800480047FD22000870060120F2
:1001C0000648804706480047FEE7FEE7FEE7FEE7F1
:1001D000FEE7FEE7FEE7FEE7FEE7FEE77522000822
:1001E000AD010008064C074D06E0E06840F0010351
:1001F00094E8070098471034AC42F6D3FFF7DAFFD3
:1002000088240008A824000800BFFEE710B50249B2
:10021000C86C00F067F910BD4400002010B5024919
:10022000886C00F05FF910BD44000020014608789A
:1002300010381823B0FBF3F20848805CC865032A25
:1002400005D908686FF30900001D886503E0086898
:100250006FF309008865886D7047000080240008EE
:10026000014600208A6A8B6903BB32B1012A0CD097
:10027000022A10D0032A17D115E0CB6A03F080734D
:10028000B3F1807F00D101200FE0CB6AB3F1C07FD2
:1002900000D1012009E0CB6A03F08073B3F1807FC5
:1002A00000D1012001E000E000BF35E08B69B3F52B
:1002B000005F1BD132B1012A06D0022A0CD0032ADA
:1002C00012D10BE0012010E0CB6A03F08073B3F190
:1002D000807F00D1012008E0012006E0CB6AB3F165
:1002E000C07F00D1012000E000BF15E032B1012A3B
:1002F00005D0022A04D0032A0CD103E000BF00BFBE
:10030000012008E0CB6A03F08073B3F1807F00D155
:10031000012000E000BF00BF704730B504682468CA
:1003200024F4802405682C60046863608468402C91
:1003300004D10468A2600468E16003E00468A1607D
:100340000468E26030BD704700BFFEE730B502468A
:10035000002300240868012816D013686FF30E03E9
:10036000D1E901052843CD6828430D6928434D692B
:1003700028438D692843CD6928430D6A28434D6A77
:1003800028430343136019E0136823F4F843D1E9C9
:10039000070528434D6A2843034354686FF30E044E
:1003A000D1E901052843CD6828430D6928434D69EB
:1003B00028438D692843044313605460002030BDF6
:1003C0000246506940EA4100506100207047F8B58C
:1003D00006460C461546002000900027D4E900018F
:1003E0000843A168491E40EA4110E16840EA412003
:1003F00000900098306100F015FC074609E0681C89
:1004000038B125B100F00EFCC01BA84201D9032071
:10041000F8BDB06900F020000028F0D100BFF7E778
:1004200070B50346154600220024012D1FD09A689E
:1004300002F070420868401E4E68761E40EA0616BA
:100440008868401E46EA0026C868401E46EA003614
:10045000088A401E46EA0046888A401E46EA005640
:10046000087E401E46EA006002439A6022E09A68D5
:1004700011480240C868401E0603888A401E46EAAA
:1004800000500243DC6804F070440868401E4E6867
:10049000761E40EA06168868401E46EA0026088A4C
:1004A000401E46EA0046087E401E46EA00600443BD
:1004B0009A60DC60002070BDFF0F0FFF014691F8CD
:1004C0003500022803D080204865012070470520B0
:1004D00081F835000868006820F001000A681060A3
:1004E0000020F3E7F8B50446002000908D4800682E
:1004F0004FF41651B0FBF1F7A56D2E6894F85C101F
:1005000008208840304098B12068006800F004005E
:1005100070B12068006820F004002168086094F839
:100520005C1008208840A860606D40F001006065A4
:1005300094F85C107C488840304068B1206840697D
:1005400000F0800040B194F85C1077488840A860C3
:10055000606D40F00200606594F85C107248C01C49
:100560008840304070B12068006800F0020048B157
:1005700094F85C106C48C01C8840A860606D40F026
:100580000400606594F85C1010208840304078B317
:100590002068006800F0080050B394F85C10102048
:1005A0008840A8602068006800F4802080B120683E
:1005B000006800F4002028B9206CC8B12046216CE6
:1005C000884715E0A06C98B12046A16C88470FE0E1
:1005D0002068006800F4807028B92068006820F066
:1005E000080021680860206C10B12046216C884703
:1005F00094F85C10202088403040002865D02068A6
:10060000006800F0100000285FD094F85C102020F3
:100610008840A86094F83500052828D12068006833
:1006200020F01600216808602068406920F08000F2
:1006300021684861206C08B9A06C28B12068006866
:1006400020F008002168086094F85C103F20884082
:10065000A86000BF002084F8340000BF012084F8A7
:100660003500206D10B12046216D8847F8BD206807
:10067000006800F4802080B12068006800F4002049
:1006800028B9606C10B12046616C88471DE0E06BB2
:10069000D8B12046E16B884717E02068006800F475
:1006A000807068B92068006820F010002168086038
:1006B00000BF002084F8340000BF012084F835001A
:1006C000E06B10B12046E16B8847606D38B3606D18
:1006D00000F00100F0B1052084F8350020680068C2
:1006E00020F001002168086000BF0098401C0090C5
:1006F000B84200D905E02068006800F00100002839
:10070000F3D100BF00BF002084F8340000BF0120F7
:1007100084F83500E06C10B12046E16C884700BFDA
:10072000A4E700003C000020010080002DE9F0411A
:100730000446002500F076FA074614B90120BDE80A
:10074000F081606A00B100BF00BF002084F834006F
:1007500000BF022084F835002068006820F0010006
:10076000216808600AE000F05DFAC01B052805D981
:1007700020206065032084F83500E0E720680068E9
:1007800000F001000028EED12068056820480540EF
:10079000D4E901010843E16808432169084361691C
:1007A0000843A1690843E1690843216A08430543F6
:1007B000606A042803D1D4E90B010843054320688B
:1007C00005602068456925F00705606A0543606A91
:1007D00004280BD1A06A05432046FFF741FD28B14C
:1007E00040206065012084F83500A8E72068456155
:1007F0002046FFF71BFD064694F85C103F2088401A
:10080000B06000206065012084F83500002096E784
:100810003F8010F02DE9F04704460D4616461F466E
:100820004FF00008D4F8589000BF94F83400012825
:1008300002D10220BDE8F087012084F8340000BF17
:1008400094F8350001282BD1022084F835000020CF
:1008500060653B46324629462046FFF75EFD94F828
:100860005C103F208840C9F808002068006840F00C
:100870001600216808602068406940F08000216807
:100880004861206C28B12068006840F008002168A9
:1008900008602068006840F001002168086006E0F8
:1008A00000BF002084F8340000BF4FF0020840462B
:1008B000C0E7000010B54FF0FF300E49086000207F
:1008C0000860401E091D086000200860401E09499C
:1008D0001039086000200860401E091D08600020D3
:1008E0000860401E091D08600020086000F0DAF969
:1008F000002010BD2038024031B5002400F092F9EC
:10090000044600BF00F08EF9001B00998842F9D31D
:1009100038BD000000B587B03148006808B107B0A5
:1009200000BD01202E49086000BF002001902D4825
:10093000006840F001002B4908600846006800F09C
:100940000100019000BF00BF4FF63F00029002205F
:10095000039000200490032005900C20069002A92B
:10096000214800F04BF80D20029002200390002057
:100970000490032005900C20069002A91B4800F06B
:100980003DF848F2371002900220039000200490B6
:10099000032005900C20069002A9154800F02EF8BF
:1009A0004FF68370029002200390002004900320F1
:1009B00005900C20069002A90E4800F01FF84CF29A
:1009C0000370029002200390002004900320059001
:1009D0000C20069002A9084800F010F800BF9EE71E
:1009E0003000002038380240001402400008024065
:1009F0000018024000100240000C0240F8B5024608
:100A00000B460025002400200021E6E0012606FA1E
:100A100001F51E6806EA0504AC4273D15E68022E39
:100A200002D05E68122E13D1CF0802F1200656F8CC
:100A300027004E07F70E0F26BE40B0434F07FF0EAC
:100A40001E69BE403043CF0802F1200646F8270059
:100A500010684F000326BE40B0431E7906F003061F
:100A60004F00BE40304310605E68012E08D05E68C3
:100A7000022E05D05E68112E02D05E68122E13D1B0
:100A800090684F000326BE40B0434F00DE68BE4072
:100A900030439060506801268E40B0431E79C6F303
:100AA00000168E4030435060D0684F000326BE4091
:100AB000B0434F009E68BE403043D0605E6806F091
:100AC0008056B6F1805FA8D100BF00260096454E43
:100AD000366846F48046434F3E603E46366806F42C
:100AE0008046009600BF00BF3F4E8F0856F8270093
:100AF0008E07370F0F26BE40B0433C4EB24202D1A4
:100B000000262EE068E03A4EB24201D1012628E0EC
:100B1000384EB24201D1022623E0374EB24201D113
:100B200003261EE0354EB24201D1042619E0344EB0
:100B3000B24201D1052614E0324EB24201D106265E
:100B40000FE0314EB24201D107260AE02F4EB242E9
:100B500001D1082605E02E4EB24201D1092600E05F
:100B60000A268F073F0FBE4030431F4E8F0846F8BE
:100B70002700284E3068A0435E6806F48036B6F53C
:100B8000803F00D12043234E3060361D3068A043A3
:100B90005E6806F40036B6F5003F00D120431D4ED6
:100BA000361D3060361D3068A0435E6806F480163E
:100BB000B6F5801F00D12043164E08363060361D32
:100BC0003068A0435E6806F40016B6F5001F00D139
:100BD0002043104E0C363060491C1029FFF416AF2C
:100BE000F8BD0000443802400838014000000240CF
:100BF0000004024000080240000C024000100240C5
:100C00000014024000180240001C02400020024074
:100C100000240240003C01400AB1816101E00B0464
:100C20008361704701480068704700004000002061
:100C300002480068401C01490860704740000020DD
:100C400010B50D48006840F400700B490860084674
:100C5000006840F4806008600846006840F48070D6
:100C60000860032000F096F8002000F007F800F07C
:100C70001AF8002010BD0000003C024070B5044688
:100C8000074800684FF47A71B0FBF1F5284600F090
:100C9000D2FF00222146501E00F03DF8002070BD1A
:100CA0003C000020704710B5032000F073F80022CC
:100CB00011466FF00B0000F02EF8002211466FF085
:100CC0000A0000F028F8002211466FF0090000F039
:100CD00022F800221146501F00F01DF80022114694
:100CE000101F00F018F800221146901E00F013F8B3
:100CF00000221146501E00F00EF810BD00BF00F09B
:100D00001F02012191404209920002F1E022C2F843
:100D1000001100BF70472DE9F05F80460D46164672
:100D2000002701F0D5F8074639462A46334601F038
:100D30000700C0F1070ABAF1040F02D94FF0040A04
:100D400001E0C0F1070AD14600F1040ABAF1070F29
:100D500002D24FF0000A01E0A0F1030AD4464FF09E
:100D6000010A0AFA09FAAAF1010A0AEA020A0AFAC7
:100D70000CFA4FF0010B0BFA0CFBABF1010B0BEA79
:100D8000030B4AEA0B042146404601F0A9F8BDE8EE
:100D9000F09F000000BF00F00702064B19684FF6F5
:100DA000FF031940044B0B4343EA0221014B196036
:100DB00000BF70470CED00E00000FA0538B50024D4
:100DC00000BF002000902348006840F08050214977
:100DD00008600846006800F08050009000BF00BF27
:100DE0000120010491FAA1F1B1FA81F11A4A42F805
:100DF0002100FFF717FF044607E0FFF713FF001B72
:100E0000B0F57A7F01D9032038BD1448406800F45A
:100E10008030B0F5803FF0D10120410491FAA1F17A
:100E2000B1FA81F10C4A42F82100FFF7FBFE0446BB
:100E300007E0FFF7F7FE001BB0F57A7F01D903202A
:100E4000E2E70648406800F40030B0F5003FF0D11A
:100E50000020D9E74038024000000E4200700040F8
:100E600070B504460D4600266D48006800F00F007E
:100E7000A84209D26A490D700846006800F00F00C8
:100E8000A84201D0012070BD207800F002000228A5
:100E900007D16448006820F0F000A1680843614968
:100EA0000860207800F00100002877D060680128F1
:100EB00007D15C4808380068C0F34040B8B9012049
:100EC000E1E76068022802D06068032807D155482E
:100ED00008380068C0F3406048B90120D3E75148A2
:100EE00008380068C0F3400008B90120CBE74D483E
:100EF000006820F00300616808434A490860FFF772
:100F000091FE06466068012810D108E0FFF78AFECE
:100F1000801B41F28831884201D90320B3E7414860
:100F2000006800F00C000428F0D137E06068022867
:100F300010D108E0FFF776FE801B41F2883188422D
:100F400001D903209FE73748006800F00C0008280B
:100F5000F0D123E06068032810D108E0FFF762FEBB
:100F6000801B41F28831884201D903208BE72D484C
:100F7000006800F00C000C28F0D10FE008E0FFF74B
:100F800051FE801B41F28831884201D903207AE763
:100F90002448006800F00C000028F0D120480068C8
:100FA00000F00F00A84209D91D490D7008460068DD
:100FB00000F00F00A84201D0012064E7207800F083
:100FC0000400042807D11748006820F4E050E168C5
:100FD000084314490860207800F00800082808D168
:100FE0001048006820F46040216940EAC1000D49C2
:100FF000086000F023F80B49096801F0F001F022C5
:1010000092FAA2F2B2FA82F2D140074A515CC84089
:10101000064908600020FFF731FE002033E700009A
:10102000003C024008380240702400083C000020C8
:1010300001480068704700003C00002070B50021A6
:10104000002200230020274C246804F00C0424B163
:10105000042C04D0082C41D103E0234840E023486D
:101060003EE0204C241F246804F03F011D4C241F47
:10107000246804F4800484B11C4CB4FBF1F5194CD1
:10108000241F246847F6C076344096FAA6F6B6FACE
:1010900086F6F44005FB04F20FE0134CB4FBF1F5C7
:1010A000104C241F246847F6C076344096FAA6F602
:1010B000B6FA86F6F44005FB04F20A4C241F2468B5
:1010C00004F440344FF4403595FAA5F5B5FA85F5AA
:1010D000EC40641C6300B2FBF3F001E0024800BF87
:1010E00000BF70BD083802400024F400001BB700A8
:1010F00038B504460025207800F00100002848D0CB
:10110000DE48006800F00C0004280DD0DB480068C1
:1011100000F00C00082811D1D848001F006800F426
:101120008000B0F5800F09D1D44808380068C0F3BA
:10113000404070B3606860BB012038BD2079CF4962
:10114000891F0870606890B1FFF76CFD054606E0E6
:10115000FFF768FD401B642801D90320EDE7C7486D
:1011600008380068C0F340400028F1D011E0FFF7D4
:1011700059FD054606E0FFF755FD401B642801D9DF
:101180000320DAE7BD4808380068C0F34040002873
:10119000F1D1207800F00200022869D1B748006838
:1011A00000F00C0058B1B548006800F00C000828A9
:1011B00021D1B248001F006800F48000D8B9AF48C0
:1011C00008380068C0F3400020B1E068012801D071
:1011D0000120B2E7A9480838006820F0F800F8229A
:1011E00092FAA2F2B2FA82F2216991400843A3492D
:1011F000083908603CE0E06828B30120A049086095
:10120000FFF710FD054606E0FFF70CFD401B022826
:1012100001D9032091E7994808380068C0F34000DD
:101220000028F1D095480838006820F0F800F8222E
:1012300092FAA2F2B2FA82F22169914008438F49F0
:101240000839086014E000208D490860FFF7EAFCC7
:10125000054606E0FFF7E6FC401B022801D9032003
:101260006BE7864808380068C0F340000028F1D1D9
:10127000207800F0080008282CD16069A8B101206E
:1012800080490860FFF7CEFC054606E0FFF7CAFC80
:10129000401B022801D903204FE778486C300068D2
:1012A000C0F340000028F1D014E000207549086028
:1012B000FFF7B8FC054606E0FFF7B4FC401B022828
:1012C00001D9032039E76D486C300068C0F3400055
:1012D0000028F1D1207800F00400042857D100BF85
:1012E0000020009065483830006840F08050634925
:1012F000383108600846006800F08050009000BF58
:1013000000BF6148006840F480705F490860FFF7E3
:1013100089FC054606E0FFF785FC401B022801D941
:1013200003200AE75848006800F480700028F2D0D3
:10133000207A524968310870A068A0B1FFF772FCAA
:10134000054608E0FFF76EFC401B41F288318842F9
:1013500001D90320F1E6494868300068C0F3400035
:101360000028EFD013E0FFF75DFC054608E0FFF72B
:1013700059FC401B41F28831884201D90320DCE648
:101380003E4868300068C0F340000028EFD1A069F3
:10139000F0B33A48006800F00C00082869D0A06952
:1013A000022850D1002036490866FFF73BFC05466D
:1013B00006E0FFF737FC401B022801D90320BCE6FA
:1013C0002E4808380068C0F340600028F1D1D4E905
:1013D0000701084347F6C07292FAA2F2B2FA82F20B
:1013E000616A914008430122A16AC2EB51014FF4A6
:1013F000403292FAA2F2B2FA82F2914008434FF0E0
:10140000706292FAA2F2B2FA82F2E16A914000E0CE
:1014100031E008431949091F08600120184908668E
:10142000FFF700FC054606E0FFF7FCFB401B022827
:1014300001D9032081E6114808380068C0F34060F4
:101440000028F1D017E000200D490866FFF7EAFBFD
:10145000054606E0FFF7E6FB401B022801D9032002
:101460006BE6064808380068C0F340600028F1D1F8
:1014700001E0012061E600205FE60000083802403C
:1014800000004742800E47420070004070B504469D
:101490000D460CB9012070BD94F82C0028B900202D
:1014A00084F82D00204600F011F8022084F82C006A
:1014B000211D2068FEF74AFF2946D4E90002FEF705
:1014C000AFFF012084F82C000020E4E710B50446AB
:1014D000FFF720FA10BD70B504460D4694F82C00B5
:1014E000022800D170BD022084F82C002946206813
:1014F000FEF766FF012084F82C000020F2E770B5AB
:1015000004460D46164694F82C00022800D170BD02
:10151000022084F82C00324629462068FEF757FF47
:101520002868022803D1052084F82C0002E001205D
:1015300084F82C000020EAE7416D014A11607047F1
:101540002C000020F8B504462068466820688568AD
:1015500005F0400048B905F0010030B106F0400048
:1015600018B12046216C8847F8BD05F0020030B163
:1015700006F0800018B12046616C8847F4E705F456
:10158000B070002876D006F02000002872D005F058
:101590004000F0B194F8510003280ED0606D40F087
:1015A0000400606500BF002000902068C0680090C3
:1015B00020688068009000BF0BE000BF0020009012
:1015C0002068C068009020688068009000BF00BF5D
:1015D000CAE705F0200088B1606D40F00100606549
:1015E00000BF00200090206880680090206800689C
:1015F00020F040002168086000BF00BF05F4807043
:1016000058B1606D40F00800606500BF0020009098
:1016100020688068009000BF00BF606D20B3206824
:10162000406820F0E00021684860012084F8510003
:1016300006F0020010B906F00100B8B12068406859
:1016400020F0030021684860E06C28B10A48E16C92
:101650000865E06CFEF732FFA06C28B10648A16C6B
:101660000865A06CFEF72AFF03E003E02046FFF7C1
:1016700063FF79E700BF77E7D51F000810B5044680
:101680000CB9012010BD606A00B900BF0021A16241
:1016900094F8510028B9002084F85000204600F04A
:1016A00033F8022084F851002068006820F04000E0
:1016B00021680860D4E901010843E1680843216911
:1016C000084361690843218B01F400710843E16913
:1016D0000843216A0843A16A08432168086004217D
:1016E000A06901EA1040616A0843216848602068E7
:1016F000C06920F400602168C86100206065012095
:1017000084F851000020BDE710B586B004463B497F
:10171000206888426FD100BF0020009038480068E0
:1017200040F48040364908600846006800F4804074
:10173000009000BF00BF4FF4604001900220029073
:1017400000200390032004900520059001A92D4856
:10175000FFF754F92C482D4908600020486000210B
:101760002A484162032181624FF40001C16289105D
:101770000163402181600021C1604FF480610161FB
:10178000002141618161C1610162FEF7CFFF00BFAD
:101790001E48A064846300BF1B4818381C490860B9
:1017A000002048604FF400011948C16289100163AC
:1017B00000218160C1604FF48061016100214161BD
:1017C0008161C1614FF40031016200214162032156
:1017D0008162FEF7ABFF08B1FEF7B6FD00BF0C4813
:1017E000E064846300BF022201212420FFF793FA02
:1017F0002420FFF783FA06B010BD00000038004037
:10180000403802400004024070600240FC000020AA
:101810009C0000202DE9F04104460E4615460027A5
:10182000A06870B96068B0F5827F0AD1042084F89E
:1018300051002B4632463146204600F043F9BDE8C0
:10184000F08100BF94F85000012801D10220F6E792
:10185000012084F8500000BF94F85100012801D005
:10186000022747E006B10DB9012743E0042084F8C0
:10187000510000206065A663A587E5872064606449
:10188000A086E086A068B0F5004F05D1206800680A
:1018900020F48040216808601A48E16C08641A4806
:1018A000E16CC8631948E16CC8640020E16C08650C
:1018B000E38FD4F800C00CF10C01A26BE06CFEF7D2
:1018C000A9FF2068006800F04000402805D020688B
:1018D000006840F04000216808602068406840F0DF
:1018E0002000216848602068406840F001002168BD
:1018F000486000BF00BF002084F8500000BF384699
:101900009DE70000112000082D200008E91F0008B5
:101910000121014A116070472000002070472DE925
:10192000F84304460D4617461E464FF00008C146D0
:1019300000BF94F85000012802D10220BDE8F883CE
:10194000012084F8500000BFFFF76CF9804694F83E
:101950005100012802D04FF00209A9E005B117B9E2
:101960004FF00109A4E0032084F8510000206065D5
:101970002563A786E786A063A087E087606420646C
:10198000A068B0F5004F05D12068006840F48040A1
:10199000216808602068006800F04000402805D0F9
:1019A0002068006840F0400021680860E068B0F5F9
:1019B000006F2AD1606810B1E08E012806D1288816
:1019C0002168C860AD1CE08E401EE08619E02068EA
:1019D000806800F00200022807D128882168C860CA
:1019E000AD1CE08E401EE0860BE03EB1701C40B1A5
:1019F000FFF718F9A0EB0800B04202D34FF003093B
:101A000056E0E08E0028E2D129E0606810B1E08E57
:101A1000012806D12878216808736D1CE08E401ECD
:101A2000E08619E02068806800F00200022807D1F3
:101A30002878216808736D1CE08E401EE0860BE05C
:101A40003EB1701C40B1FFF7EDF8A0EB0800B042CA
:101A500002D34FF003092BE0E08E0028E2D1334699
:101A6000012202212046CDF8008000F03CFB10B19D
:101A70004FF003091CE042463146204600F096FA3A
:101A800020B14FF001092020606511E0A06850B935
:101A900000BF002000902068C06800902068806827
:101AA000009000BF00BF606D08B14FF0010900BF9A
:101AB000012084F8510000BF002084F8500000BFCE
:101AC00048463BE72DE9F04704460E4617461D46BB
:101AD0004FF00008C146C24600BF94F850000128EC
:101AE00002D10220BDE8F087012084F8500000BF39
:101AF00094F85180D4F80490B8F1010F0AD0B9F5E8
:101B0000827F04D1A06810B9B8F1040F02D04FF061
:101B1000020A67E00EB107B115B94FF0010A61E0A2
:101B200094F85100012802D1052084F851000020CA
:101B300060652663A586E586A763A587E58720649B
:101B4000606494F85100042806D12A48E16C0864C6
:101B50002948E16CC86305E02848E16C086428481E
:101B6000E16CC8632748E16CC8640020E16C08653B
:101B7000E38FD4F800C00CF10C01A26BE06CFEF70F
:101B800049FE2068406840F001002168486000205C
:101B9000A16C0864A16CC863A16CC864A16C0865E1
:101BA000E38ED4F800C00CF10C02216BA06CFEF7A0
:101BB00031FE2068006800F04000402805D0206811
:101BC000006840F04000216808602068406840F0EC
:101BD0002000216848602068406840F002002168C9
:101BE000486000BF00BF002084F8500000BF50468E
:101BF00078E70000112000082D2000081F200008B1
:101C00008D200008E91F000870477047042808D19C
:101C10004FF0E021096941F004014FF0E022116129
:101C200007E04FF0E021096921F004014FF0E022C4
:101C300011617047704770B504462546681EB0F1C3
:101C4000807F01D301200FE0681E4FF0E021486142
:101C50000F214FF0FF3000F043F900204FF0E0215A
:101C6000886107200861002070BD10B5FFF7E2FF12
:101C700010BD00BFFEE7000008B500BF00200090C7
:101C80000E48006840F400100C49086008460068DF
:101C900000F40010009000BF00BF002201210E20C0
:101CA000FFF739F80E20FFF729F8012211460F201F
:101CB000FFF731F80F20FFF721F808BD3038024058
:101CC00000B587B019481A49086000204860012112
:101CD000174881600821C1601021016140214161E4
:101CE0004FF4C07181610021C1614FF40061016254
:101CF000490041620021816202200090072001908A
:101D000004200290072003900320049002200590F5
:101D1000069069460648FFF7B9FB08B1FEF714FBC9
:101D20000449034800F0F1F807B000BD400100A0ED
:101D3000140200205C02002000B587B000BF002024
:101D400001904D48006840F010004B49086008467B
:101D5000006800F01000019000BF00BF00BF00202D
:101D600001900846006840F00400086008460068DA
:101D700000F00400019000BF00BF00BF00200190F0
:101D80000846006840F0200008600846006800F03F
:101D90002000019000BF00BF00BF00200190084656
:101DA000006840F0800008600846006800F080008D
:101DB000019000BF00BF00BF0020019008460068EE
:101DC00040F0400008600846006800F040000190C4
:101DD00000BF00BF00BF002001900846006840F02F
:101DE000020008600846006800F00200019000BF91
:101DF00000BF00BF002001900846006840F00800C6
:101E000008600846006800F00800019000BF00BFAD
:101E100000BF002001900846006840F00100086003
:101E20000846006800F00100019000BF00BF881460
:101E300002900120039000200490059002A90F4811
:101E4000FEF7DCFD4FF420500290012003900020AB
:101E50000490059002A90A48FEF7D0FD0122110363
:101E60000648FEF7D9FE01224FF420510448FEF740
:101E7000D3FE07B000BD000030380240000402402D
:101E8000000C024010B50E480E4908604FF48270F5
:101E9000486000210B488160C160016141614FF4DD
:101EA000007181610021C1610162416281620A2188
:101EB000C162FFF7E3FB08B1FEF746FA10BD000070
:101EC000003800404400002000BFFEE770470000DB
:101ED00002480068C0F30220704700000CED00E0EB
:101EE00010B5002807DA0A07140E054A00F00F03A0
:101EF0001B1FD45403E00A07130E024A135410BDEB
:101F000018ED00E000E400E0704738B505460C46E7
:101F10000020009001202060102060600120A0605F
:101F20000020E0604FF4805221462846FFF7E7FA90
:101F30006420FEF7E1FC0220206010206060012098
:101F4000A0600020E0604FF4805221462846FFF751
:101F5000D6FA03202060102060600420A0600020DA
:101F6000E0604FF4805221462846FFF7C8FA4FF44C
:101F70000D70009004202060102060600120A0609F
:101F80000098E0604FF4805221462846FFF7B7FAE8
:101F900040F269512846FFF79EFA38BD10B5024855
:101FA000FFF7D0FA10BD000044000020F8B5044649
:101FB0000D4616462B46002280212046009600F052
:101FC00092F828B1606D40F0200060650320F8BDF4
:101FD0000020FCE770B50546AC6B0020E087E0868A
:101FE0002046FFF7A9FA70BD70B50546AC6B2068B6
:101FF000406820F0030021684860606D40F01000E8
:102000006065012084F851002046FFF795FA70BD05
:1020100070B50446A56B2846FFF780FC70BD70B50F
:102020000446A56B2846FFF7F0FD70BD70B5054668
:10203000AC6B2868006800F4807010BB20684068B2
:1020400020F00300216848606068B0F5827F0DD100
:10205000A068B0F5004F03D0A068B0F5806F05D13F
:102060002068006820F04000216808600020E087B8
:10207000012084F85100606D18B12046FFF75CFA2A
:1020800070BD2046FFF744FC00BFF9E770B5054678
:10209000AC6B0026FEF7C6FD06462868006800F413
:1020A0008070D8B9324664212046FFF77FFF18B10F
:1020B000606D40F0200060652068406820F00300FB
:1020C000216848600020E086E087012084F8510004
:1020D000606D18B12046FFF72FFA70BD2046FFF75C
:1020E00093FD00BFF9E72DE9F04104460E4617467F
:1020F0001D46DDF818803FE0681CE0B32DB1FEF707
:1021000091FDA0EB0800A84236D32068406820F07B
:10211000E000216848606068B0F5827F0DD1A0685A
:10212000B0F5004F03D0A068B0F5806F05D12068EE
:10213000006820F0400021680860A06AB0F5005FE8
:102140000ED100BF206800684DF6FF71084021687D
:1021500008602068006840F400502168086000BFF3
:10216000012084F8510000BF002084F8500000BF17
:102170000320BDE8F081FFE7206880683040B0426E
:1021800001D1012000E00020B842B5D10020F0E7E5
:10219000704710B5FEF74CFDFFF767FD10BD00005E
:1021A00010B592B000BF002000903048006840F0A9
:1021B00080502E4908600846006800F0805000906A
:1021C00000BF00BF00BF002000902948006840F415
:1021D0004040274908600846006800F440400090ED
:1021E00000BF00BF022006900120099010200A9035
:1021F00002200C9000210D9108210E91B4210F9125
:10220000022110910821119106A8FEF771FF08B173
:10221000FEF79AF8FEF7D2FD08B1FEF795F80F2009
:10222000019002200290002003904FF4A0500490EF
:102230004FF480500590052101A8FEF711FE08B16A
:10224000FEF782F8FEF7F4FE4FF47A71B0FBF1F47A
:102250002046FFF7F0FC0420FFF7D8FC00221146CF
:10226000501EFEF758FD12B010BD0000403802406D
:10227000007000401448006840F470001249086083
:102280001248006840F001001049086000200F4922
:10229000083108600D4800680D4908400B49086086
:1022A0000C48091D0860081F006820F48020091FE1
:1022B0000860002005490C3108604FF000600249B9
:1022C000803908607047000088ED00E00038024067
:1022D000FFFFF6FE1030002400BFFEE702E008C852
:1022E000121F08C1002AFAD170477047002001E090
:1022F00001C1121F002AFBD1704700004FF0E020FF
:1023000040694C4908604FF0E02080694A49086004
:102310004FF0E020006949490860FEF791FCFFF7A3
:102320003FFFFFF709FDFFF7A7FCFFF7C9FCFFF729
:10233000A9FD434843490860012211034248FEF7C2
:102340006BFC4FF4FA70FEF7D7FA00224FF42051DD
:102350003E48FEF761FC03203D49087000204870AC
:102360008870C87041F2883304223A48FFF7D7FAE0
:1023700008B1FDF7E9FF0020374908603CE0002084
:10238000364908604FF4004235493248FFF742FAB7
:1023900008B1FDF7D9FF00BF304800680028FBD026
:1023A0002F48304908602C480068254901EBC030AF
:1023B000244908604FF400402B4908800FE0294869
:1023C000006800781F49096808701E480068401CB2
:1023D0001C49086023480068401C224908602248C4
:1023E00001880088401E204A10800029E7D11A4841
:1023F0000068401C1849086017480068FF28BED9CB
:1024000001224FF420511148FEF706FCFEF752FA64
:1024100000204FF0E02148618861086172B61348DE
:1024200044680146086880F3088800BFA04700BFE1
:10243000FEE700000000002004000020080000204B
:10244000C07F00C03800002000040240000C0240A1
:102450000C000020440000201C0000202000002070
:102460006C02002014000020180000200000020868
:10247000000000000102030401020304060708092A
:102480000006101600061016A82400080000002000
:1024900044000000DC220008EC2400084400002076
:1024A0002C060100EC2200080000000000000000E3
:1024B000000000000000000000000000000000001C
:1024C000000000000000000000000000000000000C
:1024D00000000000000000000000000000000000FC
:0C24E000000000000024F40000000000D8
:04000005080001AD41
:00000001FF
